00COTAHIST.2021BOVESPA 20211120                                                                                                                                                                                                                      
012021111902A1BB34      010ABB LTD     DRN          R$  000000000495600000000050260000000004941000000000500600000000050260000000004289000000000505000004000000000000000019000000000000095129000000000000009999123100000010000000000000BRA1BBBDR009101
012021111902A1CR34      010AMCOR PLC   DRN          R$  000000000671100000000067250000000006711000000000672000000000067250000000006551000000000671100002000000000000000003000000000000020161000000000000009999123100000010000000000000BRA1CRBDR003104
012021111902A1DM34      010ARCHER DANIEDRN ED       R$  000000003680000000000368000000000036800000000003680000000000368000000000000000000000000000000001000000000000000001000000000000036800000000000000009999123100000010000000000000BRA1DMBDR002108
012021111902A1EP34      010AMERICAN ELEDRN ED       R$  000000002311600000000231160000000023116000000002311600000000231160000000000000000000000000000001000000000000000001000000000000023116000000000000009999123100000010000000000000BRA1EPBDR003108
012021111902A1ES34      010AES CORP    DRN          R$  000000001353900000000135390000000013539000000001353900000000135390000000013539000000000000000001000000000000000004000000000000054156000000000000009999123100000010000000000000BRA1ESBDR007108
012021111902A1GI34      010AGILENT TECHDRN          R$  000000004473000000000462600000000044505000000004605800000000462480000000000000000000000000000081000000000000000228000000000010501355000000000000009999123100000010000000000000BRA1GIBDR003107
012021111902A1IV34      010APARTMENT INDRN          R$  000000000440500000000044400000000004405000000000443100000000044400000000004042000000000442500002000000000000000032000000000000141800000000000000009999123100000010000000000000BRA1IVBDR002106
012021111902A1LB34      010ALBEMARLE CODRN          R$  000000015200000000001521000000000152000000000015209300000001521000000000000000000000000000000002000000000000000032000000000004867000000000000000009999123100000010000000000000BRA1LBBDR008107
012021111902A1LG34      010ALIGN TECHNODRN          R$  000000009509500000000950950000000095095000000009509500000000950950000000079050000000011000000001000000000000000001000000000000095095000000000000009999123100000010000000000000BRA1LGBDR007100
012021111902A1LL34      010ALLIANCE DATDRN ED       R$  000000001030000000000104060000000010300000000001034500000000104060000000000000000000000000000005000000000000000329000000000003403540000000000000009999123100000010000000000000BRA1LLBDR007109
012021111902A1LN34      010ALNYLAM PHARDRN          R$  000000000497500000000049750000000004975000000000497500000000049750000000004975000000000550000001000000000000000001000000000000004975000000000000009999123100000010000000000000BRA1LNBDR003100
012021111902A1MD34      010ADVANCED MICDRN          R$  000000008658000000000877600000000085116000000008702200000000870300000000086700000000009466100174000000000000004189000000000364535428000000000000009999123100000010000000000000BRA1MDBDR002100
012021111902A1MP34      010AMERIPRISE FDRN          R$  000000004100000000000420420000000041000000000004116800000000420420000000000000000000000000000004000000000000000155000000000006381050000000000000009999123100000010000000000000BRA1MPBDR006108
012021111902A1MT34      010APPLIED MATEDRN          R$  000000008289400000000869410000000082894000000008425800000000840680000000084071000000000000000021000000000000001440000000000121331551000000000000009999123100000010000000000000BRA1MTBDR008107
012021111902A1NE34      010ARISTA NETWODRN EB       R$  000000001803600000000182030000000017800000000001781300000000182030000000017500000000000000000003000000000000000201000000000003580454000000000000009999123100000010000000000000BRA1NEBDR008101
012021111902A1NS34      010ANSYS INC   DRN          R$  000000005620000000000562000000000056200000000005620000000000562000000000000000000000000000000001000000000000000030000000000001686000000000000000009999123100000010000000000000BRA1NSBDR008100
012021111902A1NT34      010ANTHEM INC  DRN          R$  000000004659500000000465950000000046595000000004659500000000465950000000000000000000005500000001000000000000000004000000000000186380000000000000009999123100000010000000000000BRA1NTBDR006107
012021111902A1TH34      010AUTOHOME INCDRN          R$  000000000190600000000019080000000001906000000000190700000000019080000000001800000000000280000002000000000000000003000000000000005722000000000000009999123100000010000000000000BRA1THBDR008101
012021111902A1UA34      010ANGLOGOLD ASDRN          R$  000000000288100000000028990000000002881000000000289000000000028990000000002890000000000295500005000000000000000020000000000000057814000000000000009999123100000010000000000000BRA1UABDR001102
012021111902A1UT34      010AUTODESK INCDRN          R$  000000004554000000000455400000000044647000000004509400000000453420000000041531000000004661700086000000000000000208000000000009379675000000000000009999123100000010000000000000BRA1UTBDR001100
012021111902A1VB34      010AVALONBAY CODRN          R$  000000003376200000000341700000000033762000000003384200000000340000000000000000000000003499000003000000000000000086000000000002910468000000000000009999123100000010000000000000BRA1VBBDR007107
012021111902A1YX34      010ALTERYX INC DRN          R$  000000000187700000000018770000000001872000000000187300000000018720000000001702000000000320000002000000000000000007000000000000013114000000000000009999123100000010000000000000BRA1YXBDR005100
012021111902A1ZN34      010ASTRAZENECA DRN          R$  000000000528800000000053090000000005256000000000527600000000052980000000005200000000000533500058000000000000001510000000000007967744000000000000009999123100000010000000000000BRA1ZNBDR003102
012021111902A2MC34      010AMC ENTERT HDRN          R$  000000000383600000000038360000000003836000000000383600000000038360000000003300000000000408900002000000000000000102000000000000391272000000000000009999123100000010000000000000BRA2MCBDR002100
012021111902AALL34      010AMERICAN AIRDRN          R$  000000001060000000000107690000000010475000000001051900000000107490000000010521000000001089200065000000000000002893000000000030432378000000000000009999123100000010000000000000BRAALLBDR003115
012021111902AALR3       010ALLIAR      ON      NM   R$  000000000170000000000017890000000001682000000000172900000000017020000000001702000000000170409975000000000003863000000000006679679600000000000000009999123100000010000000000000BRAALRACNOR6102
012021111902AAPL34      010APPLE       DRN          R$  000000000879000000000090220000000008670000000000888300000000089700000000008970000000000898004214000000000000420676000000003737010167000000000000009999123100000010000000000000BRAAPLBDR004140
012021111902ABBV34      010ABBVIE      DRN          R$  000000006502000000000653000000000065020000000006509400000000653000000000064190000000000000000003000000000000000010000000000000650940000000000000009999123100000010000000000000BRABBVBDR001123
012021111902ABCB4       010ABC BRASIL  PN      N2   R$  000000000157400000000016110000000001556000000000159500000000016030000000001599000000000160404202000000000000743500000000001186250100000000000000009999123100000010000000000000BRABCBACNPR4138
012021111902ABEV3       010AMBEV S/A   ON           R$  000000000175500000000017720000000001736000000000174800000000017390000000001738000000000174032217000000000022010000000000038476131100000000000000009999123100000010000000000000BRABEVACNOR1124
012021111902ABTT34      010ABBOTT      DRN          R$  000000001785600000000178560000000017569000000001773800000000177650000000017000000000001840000100000000000000002272000000000040301409000000000000009999123100000010000000000000BRABTTBDR007140
012021111902ADBE34      010ADOBE INC   DRN          R$  000000000749600000000078040000000007492000000000773800000000077340000000007327000000000778000267000000000000071957000000000556842789000000000000009999123100000010000000000000BRADBEBDR003101
012021111902ADPR34      010AUTOMATIC DTDRN          R$  000000006580300000000668000000000065803000000006619300000000668000000000043055000000000000000002000000000000000115000000000007612210000000000000009999123100000010000000000000BRADPRBDR005109
012021111902AERI3       010AERIS       ON      NM   R$  000000000080200000000008140000000000790000000000080500000000008140000000000804000000000081404262000000000001692600000000001364048500000000000000009999123100000010000000000000BRAERIACNOR4100
012021111902AESB3       010AES BRASIL  ON      NM   R$  000000000111700000000011500000000001117000000000113200000000011270000000001127000000000112902551000000000000608500000000000689371200000000000000009999123100000010000000000000BRAESBACNOR7102
012021111902AFLT3       010AFLUENTE T  ON           R$  000000000086600000000008800000000000866000000000086700000000008660000000000866000000000088900006000000000000001500000000000001301700000000000000009999123100000010000000000000BRAFLTACNOR1117
012021111902AGRO3       010BRASILAGRO  ON      NM   R$  000000000247200000000025110000000002444000000000246900000000024480000000002448000000000244903190000000000000841500000000002078502700000000000000009999123100000010000000000000BRAGROACNOR7111
012021111902AGXY3       010AGROGALAXY  ON      NM   R$  000000000088000000000009000000000000863000000000088100000000009000000000000877000000000090000022000000000000014000000000000012345000000000000000009999123100000010000000000000BRAGXYACNOR4100
012021111902AIGB34      010AIG GROUP   DRN          R$  000000003095000000000309500000000030814000000003094900000000308140000000000000000000000000000002000000000000000151000000000004673314000000000000009999123100000010000000000000BRAIGBBDR007120
012021111902AIRB34      010AIRBNB      DRN          R$  000000000560000000000056000000000005285000000000544900000000054950000000005495000000000551702294000000000000058821000000000320571525000000000000009999123100000010000000000000BRAIRBBDR004100
012021111902ALLD3       010ALLIED      ON      NM   R$  000000000169300000000017000000000001632000000000167000000000016920000000001650000000000169801654000000000000240000000000000400977100000000000000009999123100000010000000000000BRALLDACNOR3101
012021111902ALPA3       010ALPARGATAS  ON      N1   R$  000000000361100000000037000000000003593000000000361000000000035930000000003408000000000365000005000000000000001100000000000003971600000000000000009999123100000010000000000000BRALPAACNOR0230
012021111902ALPA4       010ALPARGATAS  PN      N1   R$  000000000430900000000044350000000004290000000000434700000000043050000000004305000000000430720104000000000002990200000000012999502600000000000000009999123100000010000000000000BRALPAACNPR7230
012021111902ALPK3       010ESTAPAR     ON      NM   R$  000000000048000000000004820000000000471000000000047600000000004730000000000473000000000047600093000000000000020200000000000009620400000000000000009999123100000010000000000000BRALPKACNOR9101
012021111902ALSO3       010ALIANSCSONAEON      NM   R$  000000000220000000000022580000000002189000000000223400000000022350000000002235000000000223604529000000000000920100000000002056211400000000000000009999123100000010000000000000BRALSOACNOR5101
012021111902ALUP3       010ALUPAR      ON      N2   R$  000000000081300000000008190000000000804000000000081300000000008130000000000804000000000081900090000000000000009900000000000008048700000000000000009999123100000010000000000000BRALUPACNOR8112
012021111902ALUP4       010ALUPAR      PN      N2   R$  000000000080600000000008100000000000800000000000080500000000008070000000000806000000000080800136000000000000025600000000000020633500000000000000009999123100000010000000000000BRALUPACNPR5112
012021111902ALUP11      010ALUPAR      UNT     N2   R$  000000000243500000000024450000000002417000000000242800000000024250000000002425000000000242602539000000000001189700000000002889047700000000000000009999123100000010000000000000BRALUPCDAM15112
012021111902AMAR3       010LOJAS MARISAON      NM   R$  000000000042400000000004570000000000415000000000044300000000004480000000000447000000000044808070000000000011146300000000004938449400000000000000009999123100000010000000000000BRAMARACNOR4112
012021111902AMBP3       010AMBIPAR     ON      NM   R$  000000000438900000000046120000000004344000000000454800000000046000000000004600000000000460104947000000000001091900000000004966053800000000000000009999123100000010000000000000BRAMBPACNOR6101
012021111902AMER3       010AMERICANAS  ON      NM   R$  000000000337500000000034800000000003315000000000341400000000033570000000003356000000000335723032000000000006168600000000021062943900000000000000009999123100000010000000000000BRAMERACNOR6100
012021111902AMGN34      010AMGEN       DRN ED       R$  000000000411200000000041120000000004112000000000411200000000041120000000004000000000000435000001000000000000001000000000000004112000000000000000009999123100000010000000000000BRAMGNBDR004141
012021111902AMZO34      010AMAZON      DRN          R$  000000001315500000000133500000000013065000000001317500000000132010000000013144000000001320101939000000000000212500000000002799700412000000000000009999123100000010000000000000BRAMZOBDR002102
012021111902ANIM3       010ANIMA       ON      NM   R$  000000000068300000000007090000000000675000000000069100000000006820000000000682000000000068505699000000000001972500000000001364567400000000000000009999123100000010000000000000BRANIMACNOR6107
012021111902APER3       010ALPER S.A.  ON      NM   R$  000000000303900000000030750000000002844000000000299700000000028500000000002850000000000286400968000000000000154200000000000462160100000000000000009999123100000010000000000000BRAPERACNOR9103
012021111902ARML3       010ARMAC       ON      NM   R$  000000000247900000000026060000000002461000000000257000000000025700000000002550000000000257003027000000000000604200000000001553233000000000000000009999123100000010000000000000BRARMLACNOR1100
012021111902ARMT34      010ARCELOR     DRN          R$  000000000824000000000084500000000008240000000000829900000000083970000000008337000000000840700026000000000000000467000000000003876083000000000000009999123100000010000000000000BRARMTBDR008118
012021111902ARZZ3       010AREZZO CO   ON      NM   R$  000000000730000000000076780000000007235000000000755300000000076010000000007601000000000761209973000000000002494200000000018839034100000000000000009999123100000010000000000000BRARZZACNOR3140
012021111902ASAI3       010ASSAI       ON      NM   R$  000000000139700000000014380000000001390000000000142000000000014080000000001408000000000141023253000000000011060800000000015713268600000000000000009999123100000010000000000000BRASAIACNOR0103
012021111902ASML34      010ASML HOLD   DRN          R$  000000047685000000004814000000000475000000000048077400000004814000000000355100000000048890400006000000000000000035000000000016827100000000000000009999123100000010000000000000BRASMLBDR003105
012021111902ATOM3       010ATOMPAR     ON           R$  000000000031800000000003310000000000313000000000031800000000003190000000000313000000000031900059000000000000018400000000000005852300000000000000009999123100000010000000000000BRATOMACNOR1104
012021111902ATTB34      010ATT INC     DRN          R$  000000000452900000000045290000000004465000000000449900000000045150000000004487000000000451500063000000000000003068000000000013803733000000000000009999123100000010000000000000BRATTBBDR007138
012021111902ATVI34      010ACTIVISION  DRN          R$  000000003502700000000356160000000034936000000003521600000000349360000000034000000000003624900026000000000000000284000000000010001357000000000000009999123100000010000000000000BRATVIBDR008102
012021111902AURA33      010AURA 360    DR3          R$  000000000509700000000051000000000004950000000000502300000000049500000000004950000000000504003333000000000000064628000000000324684570000000000000009999123100000010000000000000BRAURABDR001104
012021111902AVGO34      010BROADCOM INCDRN          R$  000000000914300000000091430000000009077000000000910000000000091080000000000000000000000000000007000000000000010130000000000092188481000000000000009999123100000010000000000000BRAVGOBDR003111
012021111902AVLL3       010ALPHAVILLE  ON      NM   R$  000000000296900000000029690000000002631000000000265300000000026500000000001909000000000265000020000000000000016500000000000043780400000000000000009999123100000010000000000000BRAVLLACNOR5101
012021111902AXPB34      010AMERICAN EXPDRN          R$  000000000964900000000097400000000009534000000000957400000000097400000000009602000000001009400048000000000000003270000000000031308122000000000000009999123100000010000000000000BRAXPBBDR007139
012021111902AZEV3       010AZEVEDO     ON           R$  000000000039900000000004100000000000394000000000040300000000004000000000000394000000000040000096000000000000028500000000000011502600000000000000009999123100000010000000000000BRAZEVACNOR0119
012021111902AZEV4       010AZEVEDO     PN           R$  000000000031300000000003280000000000309000000000031800000000003160000000000310000000000031600405000000000000323000000000000102755200000000000000009999123100000010000000000000BRAZEVACNPR7119
012021111902AZUL4       010AZUL        PN      N2   R$  000000000271500000000028070000000002655000000000274400000000027760000000002776000000000277715379000000000006698400000000018386206700000000000000009999123100000010000000000000BRAZULACNPR4101
012021111902B1AX34      010BAXTER INTERDRN          R$  000000002228600000000222860000000022226000000002223400000000222260000000000000000000000000000002000000000000000007000000000000155642000000000000009999123100000010000000000000BRB1AXBDR004107
012021111902B1BL34      010BHP GROUP PLDRN          R$  000000000565000000000056550000000005650000000000565000000000056550000000005354000000000580000002000000000000000021000000000000118655000000000000009999123100000010000000000000BRB1BLBDR007102
012021111902B1BW34      010BATHBODY    DRN ED       R$  000000001063700000000106370000000010637000000001063700000000106370000000009434000000000000000001000000000000000005000000000000053185000000000000009999123100000010000000000000BRB1BWBDR012102
012021111902B1IL34      010BILIBILI INCDRN          R$  000000000746200000000075210000000007337000000000746700000000074250000000007125000000000779700114000000000000004716000000000035215251000000000000009999123100000010000000000000BRB1ILBDR002100
012021111902B1MR34      010BIOMARIN PHADRN          R$  000000002488400000000253500000000024884000000002511700000000253500000000000000000000000000000002000000000000000006000000000000150702000000000000009999123100000010000000000000BRB1MRBDR001100
012021111902B1NT34      010BIONTECH SE DRN          R$  000000001906500000000203000000000019032000000001970100000000200900000000020050000000002009000610000000000000047028000000000926502155000000000000009999123100000010000000000000BRB1NTBDR005100
012021111902B1PP34      010BP PLC      DRN ED       R$  000000000365900000000036800000000003627000000000364600000000036610000000003656000000000384200040000000000000002921000000000010650108000000000000009999123100000010000000000000BRB1PPBDR008105
012021111902B1SA34      010BANCO SANTANDRN          R$  000000000486500000000050700000000004780000000000484400000000050050000000004875000000000600000006000000000000000020000000000000096880000000000000009999123100000010000000000000BRB1SABDR004102
012021111902B1SX34      010BOSTON SCIENDRN          R$  000000002269600000000230560000000022696000000002295000000000230150000000017777000000000000000004000000000000000110000000000002524553000000000000009999123100000010000000000000BRB1SXBDR006100
012021111902B1TI34      010BRITISH AMERDRN          R$  000000000382500000000038610000000003813000000000382600000000038460000000003846000000000392000029000000000000002587000000000009898821000000000000009999123100000010000000000000BRB1TIBDR005104
012021111902B2YN34      010BEYOND MEAT DRN          R$  000000000214800000000022020000000002134000000000216700000000021930000000002158000000000330000005000000000000000081000000000000175571000000000000009999123100000010000000000000BRB2YNBDR003100
012021111902B3SA3       010B3          ON      NM   R$  000000000125600000000012750000000001236000000000125200000000012470000000001246000000000124751303000000000037670500000000047166933300000000000000009999123100000010000000000000BRB3SAACNOR6118
012021111902BAAX39      010MSCI ASIA JPDRN          R$  000000000481300000000048640000000004802000000000485200000000048590000000004839000000000496400035000000000000027902000000000135391327000000000000009999123100000010000000000000BRBAAXBDR009102
012021111902BABA34      010ALIBABAGR   DRN          R$  000000000282000000000028620000000002782000000000281700000000028300000000002810000000000283002166000000000000364040000000001025786089000000000000009999123100000010000000000000BRBABABDR005101
012021111902BACW39      010MSCI ACWI   DRN          R$  000000000597500000000060960000000005888000000000598600000000059820000000005930000000000599000052000000000000005193000000000031087565000000000000009999123100000010000000000000BRBACWBDR007102
012021111902BAER39      010US AEROSPACEDRN          R$  000000000295500000000029550000000002918000000000292700000000029310000000002917000000000356700009000000000000000221000000000000647016000000000000009999123100000010000000000000BRBAERBDR003105
012021111902BAHI3       010BAHEMA      ON      MA   R$  000000000138000000000013990000000001360000000000138100000000013600000000001353000000000141900010000000000000001900000000000002624700000000000000009999123100000010000000000000BRBAHIACNOR1073
012021111902BALM4       010BAUMER      PN           R$  000000000132000000000013480000000001320000000000132900000000013480000000001251000000000135900002000000000000000300000000000000398800000000000000009999123100000010000000000000BRBALMACNPR2052
012021111902BAUH4       010EXCELSIOR   PN           R$  000000000799500000000079950000000007995000000000799500000000079950000000000000000000000809700001000000000000000100000000000000799500000000000000009999123100000010000000000000BRBAUHACNPR3116
012021111902BAZA3       010AMAZONIA    ON           R$  000000000405000000000040500000000003918000000000395000000000039200000000003920000000000400000006000000000000001100000000000004345200000000000000009999123100000010000000000000BRBAZAACNOR0175
012021111902BBAS3       010BRASIL      ON      NM   R$  000000000291500000000029310000000002891000000000290500000000029050000000002905000000000290627035000000000018638200000000054145872500000000000000009999123100000010000000000000BRBBASACNOR3301
012021111902BBDC3       010BRADESCO    ON      N1   R$  000000000174600000000017740000000001734000000000175600000000017590000000001758000000000175913779000000000008651800000000015199654400000000000000009999123100000010000000000000BRBBDCACNOR1733
012021111902BBDC4       010BRADESCO    PN      N1   R$  000000000204400000000020680000000002021000000000204900000000020530000000002050000000000205447435000000000039590400000000081134269500000000000000009999123100000010000000000000BRBBDCACNPR8733
012021111902BBRK3       010BR BROKERS  ON      NM   R$  000000000012400000000001290000000000118000000000012200000000001210000000000120000000000012101660000000000004358400000000000533020600000000000000009999123100000010000000000000BRBBRKACNOR4114
012021111902BBSE3       010BBSEGURIDADEON      NM   R$  000000000227300000000022870000000002212000000000223800000000022230000000002223000000000222617064000000000005657500000000012665034800000000000000009999123100000010000000000000BRBBSEACNOR5119
012021111902BCHI39      010MSCI CHINA  DRN          R$  000000000478200000000048130000000004762000000000479700000000048020000000004767000000000481900007000000000000000139000000000000666916000000000000009999123100000010000000000000BRBCHIBDR001102
012021111902BCSA34      010SANTANDER   DRN          R$  000000000197500000000019750000000001860000000000191000000000019070000000001912000000000194600035000000000000002286000000000004368307000000000000009999123100000010000000000000BRBCSABDR005104
012021111902BDVY39      010SELECT DIVIDDRN          R$  000000000674800000000067480000000006546000000000666100000000066570000000006650000000000693000011000000000000003374000000000022474222000000000000009999123100000010000000000000BRBDVYBDR007104
012021111902BEEF3       010MINERVA     ON  ED  NM   R$  000000000088800000000009120000000000887000000000089500000000008890000000000887000000000088910034000000000005855100000000005245475900000000000000009999123100000010000000000000BRBEEFACNOR6112
012021111902BEEM39      010MSCI EMGMARKDRN          R$  000000000470900000000047580000000004709000000000475300000000047580000000004709000000000497300007000000000000008481000000000040312360000000000000009999123100000010000000000000BRBEEMBDR006102
012021111902BEES3       010BANESTES    ON           R$  000000000047900000000004860000000000475000000000047700000000004810000000000475000000000048100080000000000000009900000000000004725500000000000000009999123100000010000000000000BRBEESACNOR9354
012021111902BEES4       010BANESTES    PN           R$  000000000058100000000005810000000000566000000000057400000000005770000000000567000000000058000008000000000000001700000000000000976600000000000000009999123100000010000000000000BRBEESACNPR6279
012021111902BEFA39      010MSCI EAFE   DRN          R$  000000000558200000000056420000000005579000000000563200000000056290000000005525000000000586500004000000000000000211000000000001188551000000000000009999123100000010000000000000BRBEFABDR008102
012021111902BEFG39      010MSCIEAFEGROWDRN          R$  000000000630000000000063000000000006300000000000630000000000063000000000000000000000000000000001000000000000000020000000000000126000000000000000009999123100000010000000000000BRBEFGBDR005101
012021111902BEFV39      010MSCIEAFEVALUDRN          R$  000000000478600000000047860000000004786000000000478600000000047860000000000000000000000480700002000000000000000017000000000000081362000000000000009999123100000010000000000000BRBEFVBDR004101
012021111902BEGU39      010TRUSTMSCI USDRN          R$  000000000600700000000060340000000006007000000000602800000000060340000000005800000000000614100004000000000000001010000000000006089178000000000000009999123100000010000000000000BRBEGUBDR004104
012021111902BERK34      010BERKSHIRE   DRN          R$  000000000778500000000078740000000007689000000000778600000000078660000000007845000000000786600846000000000000044326000000000345144265000000000000009999123100000010000000000000BRBERKBDR002101
012021111902BEWC39      010MSCI CANADA DRN          R$  000000000543900000000054390000000005439000000000543900000000054390000000005439000000000556500001000000000000000020000000000000108780000000000000009999123100000010000000000000BRBEWCBDR009101
012021111902BEWH39      010MSCIHONGKONGDRN          R$  000000000453400000000045340000000004534000000000453400000000045340000000004341000000000457400001000000000000000001000000000000004534000000000000009999123100000010000000000000BRBEWHBDR008102
012021111902BEWJ39      010MSCI JAPAN  DRN          R$  000000000484300000000049010000000004833000000000490000000000049010000000004833000000000495000006000000000000003222000000000015790053000000000000009999123100000010000000000000BRBEWJBDR004102
012021111902BEWL39      010MSCI SWITZERDRN          R$  000000000557400000000055740000000005574000000000557400000000055740000000005433000000000572600001000000000000000090000000000000501660000000000000009999123100000010000000000000BRBEWLBDR000101
012021111902BEWQ39      010MSCI FRANCE DRN          R$  000000000549100000000054910000000005488000000000548900000000054880000000005340000000000000000003000000000000000500000000000002744600000000000000009999123100000010000000000000BRBEWQBDR009101
012021111902BEWT39      010MSCI TAIWAN DRN          R$  000000000618100000000061810000000006180000000000618000000000061800000000005830000000000000000003000000000000002631000000000016260000000000000000009999123100000010000000000000BRBEWTBDR003101
012021111902BEWU39      010MSCI UK     DRN          R$  000000000620600000000062060000000006139000000000615700000000061630000000006166000000000641000006000000000000007052000000000043419683000000000000009999123100000010000000000000BRBEWUBDR001102
012021111902BEWW39      010MSCI MEXICO DRN          R$  000000000661400000000066140000000006614000000000661400000000066140000000000000000000000000000002000000000000000800000000000005291200000000000000009999123100000010000000000000BRBEWWBDR007103
012021111902BEWY39      010MSCISOUTHKORDRN          R$  000000000546500000000054850000000005465000000000547600000000054850000000005323000000000577500002000000000000000070000000000000383350000000000000009999123100000010000000000000BRBEWYBDR003101
012021111902BEWZ39      010MSCI BRAZIL DRN          R$  000000000546600000000054660000000005466000000000546600000000054660000000004518000000000000000001000000000000000052000000000000284232000000000000009999123100000010000000000000BRBEWZBDR000102
012021111902BEZU39      010MSCIEUROZONEDRN          R$  000000000702700000000070270000000007021000000000702300000000070270000000006718000000000702800007000000000000017304000000000121532334000000000000009999123100000010000000000000BRBEZUBDR004102
012021111902BFAV39      010MSCIMINVOL FDRN          R$  000000000542000000000054200000000005420000000000542000000000054200000000000000000000000000000001000000000000000100000000000000542000000000000000009999123100000010000000000000BRBFAVBDR002101
012021111902BFBI39      010FT NYSE BIOTDRN          R$  000000000438600000000043860000000004385000000000438500000000043850000000000000000000000000000002000000000000000003000000000000013156000000000000009999123100000010000000000000BRBFBIBDR007100
012021111902BFCG39      010FT NAT GAS  DRN          R$  000000000480800000000048080000000004808000000000480800000000048080000000004508000000000621600001000000000000000060000000000000288480000000000000009999123100000010000000000000BRBFCGBDR009101
012021111902BGIP3       010BANESE      ON           R$  000000000311000000000031100000000003110000000000311000000000031100000000003100000000000320000001000000000000000100000000000000311000000000000000009999123100000010000000000000BRBGIPACNOR1201
012021111902BGIP4       010BANESE      PN           R$  000000000227000000000023000000000002270000000000228900000000023000000000002250000000000235400003000000000000000300000000000000686900000000000000009999123100000010000000000000BRBGIPACNPR8201
012021111902BGWH39      010COREDIVGROWTDRN          R$  000000000605800000000060580000000006058000000000605800000000060580000000000000000000000605800001000000000000000004000000000000024232000000000000009999123100000010000000000000BRBGWHBDR003102
012021111902BHPG34      010BHP GROUP   DRN          R$  000000002926100000000292610000000029261000000002926100000000292610000000028490000000003600000001000000000000000001000000000000029261000000000000009999123100000010000000000000BRBHPGBDR007104
012021111902BIAU39      010GOLD TRUST  DRN          R$  000000000487400000000049380000000004874000000000490600000000049340000000004915000000000493600030000000000000001663000000000008159940000000000000009999123100000010000000000000BRBIAUBDR008102
012021111902BIBB39      010ICE BIOTECH DRN          R$  000000000569700000000057750000000005685000000000577300000000057730000000005582000000000595900009000000000000009179000000000052995928000000000000009999123100000010000000000000BRBIBBBDR006104
012021111902BIDI3       010BANCO INTER ON      N2   R$  000000000129200000000013980000000001247000000000135200000000013450000000001342000000000134504951000000000001235600000000001671127600000000000000009999123100000010000000000000BRBIDIACNOR3110
012021111902BIDI4       010BANCO INTER PN      N2   R$  000000000130400000000014160000000001262000000000135900000000013600000000001359000000000136025545000000000009986800000000013579729000000000000000009999123100000010000000000000BRBIDIACNPR0114
012021111902BIDI11      010BANCO INTER UNT     N2   R$  000000000388100000000042370000000003755000000000407900000000040810000000004081000000000408529405000000000008947200000000036502593100000000000000009999123100000010000000000000BRBIDICDAXX3109
012021111902BIDU34      010BAIDU INC   DRN          R$  000000008490000000000851090000000084900000000008505600000000851090000000082500000000009020000002000000000000000004000000000000340227000000000000009999123100000010000000000000BRBIDUBDR002100
012021111902BIEF39      010COREMSCIEAFEDRN          R$  000000000525000000000053240000000005235000000000524600000000053240000000005280000000000535000003000000000000002855000000000014979750000000000000009999123100000010000000000000BRBIEFBDR001102
012021111902BIEM39      010COREMSCI EMKDRN          R$  000000000579400000000058500000000005788000000000582700000000058390000000005750000000000612000016000000000000025443000000000148274629000000000000009999123100000010000000000000BRBIEMBDR007102
012021111902BIEU39      010COREMSCI EURDRN          R$  000000000541500000000054850000000005398000000000547400000000054720000000005460000000000547800871000000000000052844000000000289287414000000000000009999123100000010000000000000BRBIEUBDR000102
012021111902BIGF39      010GLOBAL INFRADRN          R$  000000000647500000000064750000000006453000000000647200000000064530000000006207000000000693100002000000000000000149000000000000964445000000000000009999123100000010000000000000BRBIGFBDR006102
012021111902BIHI39      010USMEDICDEVICDRN          R$  000000000102000000000010440000000001020000000000102400000000010400000000001020000000000107400003000000000000002355000000000002412220000000000000009999123100000010000000000000BRBIHIBDR008103
012021111902BIIB34      010BIOGEN      DRN          R$  000000002347400000000241000000000023474000000002390700000000241000000000020777000000002836900006000000000000000028000000000000669401000000000000009999123100000010000000000000BRBIIBBDR001101
012021111902BIJH39      010CORE MIDCAP DRN          R$  000000000792800000000079280000000007928000000000792800000000079280000000007216000000000000000001000000000000000003000000000000023784000000000000009999123100000010000000000000BRBIJHBDR006104
012021111902BIJR39      010CORESMALLCAPDRN          R$  000000000811900000000082620000000008119000000000822200000000082100000000008119000000000840000008000000000000003199000000000026305015000000000000009999123100000010000000000000BRBIJRBDR005104
012021111902BILB34      010BILBAOVIZ   DRN          R$  000000000341100000000034340000000003381000000000340300000000034340000000000000000000000000000005000000000000000007000000000000023822000000000000009999123100000010000000000000BRBILBBDR005103
012021111902BILF39      010LATIN AMER40DRN          R$  000000000450500000000045050000000004505000000000450500000000045050000000000000000000000501100001000000000000000180000000000000810900000000000000009999123100000010000000000000BRBILFBDR006102
012021111902BIOM3       010BIOMM       ON      MA   R$  000000000135000000000013950000000001340000000000136100000000013400000000001340000000000138200012000000000000001800000000000002450700000000000000009999123100000010000000000000BRBIOMACNOR2108
012021111902BITO39      010CORE SP TOTADRN          R$  000000000598700000000060180000000005934000000000595700000000060050000000005594000000000611900013000000000000000653000000000003890472000000000000009999123100000010000000000000BRBITOBDR001104
012021111902BIVB39      010CORE SP 500 DRN          R$  000000000654200000000066280000000006507000000000660700000000066100000000006506000000000662800030000000000000011188000000000073919564000000000000009999123100000010000000000000BRBIVBBDR004104
012021111902BIVE39      010SP500 VALUE DRN          R$  000000000569900000000057010000000005699000000000569900000000057010000000005309000000000592800002000000000000002505000000000014276005000000000000009999123100000010000000000000BRBIVEBDR008102
012021111902BIVW39      010SP500GROWTH DRN          R$  000000000587400000000059240000000005869000000000589600000000058970000000005800000000000000000010000000000000001523000000000008980734000000000000009999123100000010000000000000BRBIVWBDR000102
012021111902BIWF39      010RUSSEL1000GRDRN          R$  000000000688600000000069220000000006886000000000692100000000069220000000005893000000000000000002000000000000000147000000000001017462000000000000009999123100000010000000000000BRBIWFBDR003102
012021111902BIWM39      010RUSSELL 2000DRN          R$  000000000646700000000065600000000006460000000000646600000000065320000000005746000000000000000301000000000000063732000000000412150191000000000000009999123100000010000000000000BRBIWMBDR009104
012021111902BIXG39      010BKR GL FIN  DRN          R$  000000000557700000000055770000000005577000000000557700000000055770000000000000000000000000000001000000000000000001000000000000005577000000000000009999123100000010000000000000BRBIXGBDR009100
012021111902BIXJ39      010GLOBALHEALTHDRN          R$  000000000620000000000063120000000006029000000000610400000000060660000000005750000000000654701009000000000000003546000000000021645742000000000000009999123100000010000000000000BRBIXJBDR003102
012021111902BIXN39      010GLOBAL TECH DRN          R$  000000000117500000000011970000000001175000000000118700000000011970000000001175000000000120000009000000000000000834000000000000989991000000000000009999123100000010000000000000BRBIXNBDR005103
012021111902BIYE39      010BKR US ENER DRN          R$  000000000576800000000057680000000005630000000000563100000000056410000000000000000000000566300003000000000000000132000000000000743309000000000000009999123100000010000000000000BRBIYEBDR002100
012021111902BIYF39      010US FINANCIALDRN          R$  000000000324800000000032500000000003129000000000319300000000032500000000003210000000000338501060000000000000006479000000000020690798000000000000009999123100000010000000000000BRBIYFBDR009105
012021111902BIYW39      010US TECHNOLOGDRN          R$  000000000188000000000018800000000001854000000000186600000000018700000000001746000000000214400015000000000000001951000000000003641073000000000000009999123100000010000000000000BRBIYWBDR004105
012021111902BKBR3       010BK BRASIL   ON      NM   R$  000000000076200000000007760000000000752000000000076100000000007600000000000759000000000076010084000000000005923500000000004512917100000000000000009999123100000010000000000000BRBKBRACNOR4103
012021111902BKNG34      010BOOKING     DRN          R$  000000000745500000000075780000000007211000000000739800000000075780000000007495000000000757800573000000000000061052000000000451685485000000000000009999123100000010000000000000BRBKNGBDR006101
012021111902BLAK34      010BLACKROCK   DRN          R$  000000008432000000000860000000000084320000000008566300000000853040000000085187000000008759000014000000000000000477000000000040861309000000000000009999123100000010000000000000BRBLAKBDR003122
012021111902BLAU3       010BLAU        ON      NM   R$  000000000368000000000038700000000003671000000000381600000000038130000000003813000000000386601704000000000000262300000000001000975900000000000000009999123100000010000000000000BRBLAUACNOR8102
012021111902BMEB3       010MERC BRASIL ON      N1   R$  000000000220000000000022000000000002200000000000220000000000022000000000002100000000000248000001000000000000000100000000000000220000000000000000009999123100000010000000000000BRBMEBACNOR8198
012021111902BMEB4       010MERC BRASIL PN      N1   R$  000000000183500000000018350000000001835000000000183500000000018350000000001808000000000186700002000000000000000700000000000001284500000000000000009999123100000010000000000000BRBMEBACNPR5203
012021111902BMGB4       010BANCO BMG   PN      N1   R$  000000000029600000000003060000000000293000000000030100000000003030000000000303000000000030502158000000000000746400000000000225046500000000000000009999123100000010000000000000BRBMGBACNPR0102
012021111902BMIN3       010MERC INVEST ON           R$  000000000249800000000024980000000002498000000000249800000000024980000000001900000000000269900001000000000000000100000000000000249800000000000000009999123100000010000000000000BRBMINACNOR4168
012021111902BMKS3       010BIC MONARK  ON           R$  000000002270000000000227010000000022700000000002270000000000227000000000022701000000002300000003000000000000000021000000000000476710000000000000009999123100000010000000000000BRBMKSACNOR9163
012021111902BMOB3       010BEMOBI TECH ON      NM   R$  000000000153000000000016020000000001516000000000156300000000015530000000001542000000000155302971000000000000644700000000001007754700000000000000009999123100000010000000000000BRBMOBACNOR7100
012021111902BMTU39      010MSCIUSAMOM FDRN          R$  000000000526300000000052720000000005260000000000527100000000052720000000005025000000000620000003000000000000002001000000000010548063000000000000009999123100000010000000000000BRBMTUBDR000102
012021111902BMYB34      010BRISTOLMYERSDRN          R$  000000003250000000000325000000000032500000000003250000000000325000000000031000000000003400000001000000000000000002000000000000065000000000000000009999123100000010000000000000BRBMYBBDR000132
012021111902BNDA39      010MSCI INDIA  DRN          R$  000000000689900000000069650000000006874000000000690300000000069650000000006734000000000696600006000000000000000318000000000002195235000000000000009999123100000010000000000000BRBNDABDR004102
012021111902BOAC34      010BANK AMERICADRN          R$  000000000639300000000063930000000006208000000000631400000000063000000000006300000000000637600135000000000000028436000000000179560847000000000000009999123100000010000000000000BRBOACBDR004145
012021111902BOAS3       010BOA VISTA   ON      NM   R$  000000000080900000000008720000000000804000000000085100000000008510000000000847000000000085103094000000000000839600000000000714643500000000000000009999123100000010000000000000BRBOASACNOR6101
012021111902BOBR4       010BOMBRIL     PN           R$  000000000017400000000001740000000000171000000000017300000000001740000000000171000000000017400037000000000000010300000000000001782900000000000000009999123100000010000000000000BRBOBRACNPR3128
012021111902BOEF39      010BKR SP100   DRN          R$  000000000611000000000061100000000006110000000000611000000000061100000000000000000000000000000001000000000000000016000000000000097760000000000000009999123100000010000000000000BRBOEFBDR009101
012021111902BOEI34      010BOEING      DRN          R$  000000012520000000001252000000000119755000000012130500000001199950000000119800000000013009200032000000000000000810000000000098257671000000000000009999123100000010000000000000BRBOEIBDR003132
012021111902BONY34      010BNY MELLON  DRN          R$  000000003136000000000320960000000031360000000003158000000000320960000000031825000000000000000014000000000000000113000000000003568596000000000000009999123100000010000000000000BRBONYBDR001125
012021111902BOXP34      010BOSTON PROP DRN          R$  000000000663600000000066360000000006636000000000663600000000066360000000006144000000000663600001000000000000000015000000000000099540000000000000009999123100000010000000000000BRBOXPBDR008125
012021111902BPAC3       010BTGP BANCO  ON      N2   R$  000000000136500000000014110000000001365000000000139600000000013650000000001365000000000141100023000000000000002500000000000003490500000000000000009999123100000010000000000000BRBPACACNOR7125
012021111902BPAC5       010BTGP BANCO  PNA     N2   R$  000000000047500000000004980000000000451000000000046800000000004740000000000474000000000048900027000000000000013600000000000006377300000000000000009999123100000010000000000000BRBPACACNPA0125
012021111902BPAC11      010BTGP BANCO  UNT     N2   R$  000000000207700000000021680000000002059000000000210500000000020910000000002091000000000209237415000000000016037000000000033759408700000000000000009999123100000010000000000000BRBPACUNT006110
012021111902BPAN4       010BANCO PAN   PN      N1   R$  000000000116100000000012180000000001130000000000116600000000011450000000001145000000000114611031000000000006051500000000007057915300000000000000009999123100000010000000000000BRBPANACNPR1111
012021111902BQUA39      010MSCIUSQUAL FDRN          R$  000000000570000000000057000000000005359000000000548800000000054580000000006277000000000000000007000000000000003100000000000017013691000000000000009999123100000010000000000000BRBQUABDR001102
012021111902BRAP3       010BRADESPAR   ON      N1   R$  000000000423000000000043940000000004230000000000434500000000043730000000004337000000000437301010000000000000194700000000000846112200000000000000009999123100000010000000000000BRBRAPACNOR5140
012021111902BRAP4       010BRADESPAR   PN      N1   R$  000000000453400000000046530000000004527000000000460200000000045980000000004596000000000459811961000000000004946500000000022767994700000000000000009999123100000010000000000000BRBRAPACNPR2140
012021111902BRBI11      010BR PARTNERS UNT     N2   R$  000000000180900000000018480000000001777000000000181100000000018000000000001795000000000183000513000000000000108800000000000197084700000000000000009999123100000010000000000000BRBRBICDAM10100
012021111902BRFS3       010BRF SA      ON      NM   R$  000000000227700000000023360000000002248000000000228600000000022670000000002267000000000227419490000000000007829400000000017899348300000000000000009999123100000010000000000000BRBRFSACNOR8120
012021111902BRGE11      010ALFA CONSORCPNE          R$  000000000084900000000008490000000000849000000000084900000000008490000000000791000000000088800001000000000000000100000000000000084900000000000000009999123100000010000000000000BRBRGEACNPE1107
012021111902BRIT3       010BRISANET    ON      NM   R$  000000000064500000000006880000000000622000000000066600000000006850000000000685000000000068601688000000000000427600000000000284827900000000000000009999123100000010000000000000BRBRITACNOR0100
012021111902BRIV3       010ALFA INVEST ON           R$  000000000087500000000008750000000000875000000000087500000000008750000000000860000000000095000001000000000000000100000000000000087500000000000000009999123100000010000000000000BRBRIVACNOR6207
012021111902BRIV4       010ALFA INVEST PN           R$  000000000081000000000008100000000000810000000000081000000000008100000000000812000000000083000001000000000000000200000000000000162000000000000000009999123100000010000000000000BRBRIVACNPR3213
012021111902BRKM3       010BRASKEM     ON      N1   R$  000000000450500000000046300000000004500000000000455700000000045620000000004480000000000459000014000000000000002300000000000010482400000000000000009999123100000010000000000000BRBRKMACNOR1117
012021111902BRKM5       010BRASKEM     PNA     N1   R$  000000000465900000000047740000000004609000000000472000000000047160000000004716000000000471807945000000000001253500000000005916818100000000000000009999123100000010000000000000BRBRKMACNPA4118
012021111902BRML3       010BR MALLS PARON      NM   R$  000000000084500000000008630000000000839000000000085300000000008490000000000849000000000085027265000000000016953300000000014475783000000000000000009999123100000010000000000000BRBRMLACNOR9116
012021111902BRPR3       010BR PROPERT  ON      NM   R$  000000000073500000000007480000000000727000000000073500000000007310000000000731000000000073404307000000000001325800000000000975205000000000000000009999123100000010000000000000BRBRPRACNOR9121
012021111902BRSR3       010BANRISUL    ON      N1   R$  000000000119000000000012020000000001177000000000118800000000011820000000001180000000000118700037000000000000005300000000000006296400000000000000009999123100000010000000000000BRBRSRACNOR3175
012021111902BRSR5       010BANRISUL    PNA     N1   R$  000000000173000000000017300000000001730000000000173000000000017300000000001579000000000174600001000000000000000100000000000000173000000000000000009999123100000010000000000000BRBRSRACNPA6179
012021111902BRSR6       010BANRISUL    PNB     N1   R$  000000000100300000000010240000000000999000000000101200000000010100000000001008000000000101003902000000000002265400000000002293880000000000000000009999123100000010000000000000BRBRSRACNPB4178
012021111902BSCZ39      010BKR MS EAFE DRN          R$  000000000527900000000052790000000005279000000000527900000000052790000000000000000000000000000001000000000000000004000000000000021116000000000000009999123100000010000000000000BRBSCZBDR002100
012021111902BSLI3       010BRB BANCO   ON           R$  000000000280000000000028000000000002800000000000280000000000028000000000002601000000000280000001000000000000000100000000000000280000000000000000009999123100000010000000000000BRBSLIACNOR5183
012021111902BSLI4       010BRB BANCO   PN           R$  000000000150000000000017440000000001489000000000159600000000017440000000001650000000000173900011000000000000001800000000000002872800000000000000009999123100000010000000000000BRBSLIACNPR2183
012021111902BSLV39      010SILVER TRUSTDRN          R$  000000000423600000000042840000000004227000000000425000000000042650000000004230000000000426000035000000000000004989000000000021206428000000000000009999123100000010000000000000BRBSLVBDR002100
012021111902BSOX39      010BKR SEMICONDDRN          R$  000000000755500000000075550000000007550000000000755200000000075500000000006776000000000000000003000000000000000213000000000001608715000000000000009999123100000010000000000000BRBSOXBDR002100
012021111902BSUS39      010ESGMSCIUSA LDRN          R$  000000000590200000000059050000000005902000000000590400000000059050000000005300000000000000000002000000000000002403000000000014189706000000000000009999123100000010000000000000BRBSUSBDR009102
012021111902BUSM39      010MSCI US MVOLDRN          R$  000000000540900000000054700000000005409000000000546700000000054700000000005161000000000000000004000000000000003011000000000016463399000000000000009999123100000010000000000000BRBUSMBDR002104
012021111902BUSR39      010CORE US REITDRN          R$  000000000605500000000060600000000005939000000000598400000000060300000000005900000000000000000009000000000000002434000000000014566249000000000000009999123100000010000000000000BRBUSRBDR001102
012021111902BXTC39      010EXPON TECHNLDRN          R$  000000000631200000000063120000000006210000000000622800000000062100000000005969000000000000000003000000000000000026000000000000161934000000000000009999123100000010000000000000BRBXTCBDR005101
012021111902C1BR34      010CBRE GROUP IDRN          R$  000000005645000000000564500000000056450000000005645000000000564500000000000000000000000000000001000000000000000100000000000005645000000000000000009999123100000010000000000000BRC1BRBDR003100
012021111902C1BS34      010VIACOMCBS   DRN          R$  000000001884800000000189230000000018690000000001875200000000188660000000017999000000001990000073000000000000000243000000000004556779000000000000009999123100000010000000000000BRC1BSBDR001108
012021111902C1CI34      010CROWN CASTLEDRN          R$  000000002553000000000255300000000025530000000002553000000000255300000000000000000000000000000001000000000000003801000000000097039530000000000000009999123100000010000000000000BRC1CIBDR000107
012021111902C1CL34      010CARNIVAL CORDRN          R$  000000001136000000000115500000000011000000000001139300000000113290000000011311000000001380000007000000000000002048000000000023333260000000000000009999123100000010000000000000BRC1CLBDR004101
012021111902C1DN34      010CADENCE DESIDRN          R$  000000005261800000000526800000000052618000000005267800000000526800000000000000000000006000000002000000000000000062000000000003266036000000000000009999123100000010000000000000BRC1DNBDR008100
012021111902C1GP34      010COSTAR GROUPDRN          R$  000000000044700000000004550000000000447000000000045100000000004550000000000442000000000046400003000000000000000006000000000000002706000000000000009999123100000010000000000000BRC1GPBDR006101
012021111902C1HI34      010CHINA PETROLDRN          R$  000000000442400000000044240000000004384000000000439700000000043840000000003000000000000499600002000000000000000003000000000000013192000000000000009999123100000010000000000000BRC1HIBDR009102
012021111902C1IC34      010CIGNA CORP  DRN          R$  000000002925000000000292500000000029250000000002925000000000292500000000000000000000003050000001000000000000000001000000000000029250000000000000009999123100000010000000000000BRC1ICBDR000104
012021111902C1MG34      010CHIPOTLE MEXDRN          R$  000000004944100000000494410000000049294000000004934300000000492940000000025324000000000000000002000000000000000003000000000000148029000000000000009999123100000010000000000000BRC1MGBDR003100
012021111902C1NS34      010CELANESE CORDRN          R$  000000004650000000000465000000000046401000000004643400000000464010000000000000000000000000000002000000000000000003000000000000139302000000000000009999123100000010000000000000BRC1NSBDR006108
012021111902C1OG34      010COTERRA ENERDRN ED       R$  000000001110000000000111000000000011100000000001110000000000111000000000000000000000000000000001000000000000000001000000000000011100000000000000009999123100000010000000000000BRC1OGBDR009109
012021111902C1OU34      010COUPA SOFTWADRN          R$  000000000403600000000040430000000003972000000000401200000000040000000000003268000000000550000710000000000000001413000000000005670178000000000000009999123100000010000000000000BRC1OUBDR000100
012021111902C1SU34      010CREDIT SUISSDRN          R$  000000000284400000000028440000000002693000000000273400000000027470000000002743000000000285900020000000000000000156000000000000426654000000000000009999123100000010000000000000BRC1SUBDR001102
012021111902C1TA34      010CINTAS CORP DRN ED       R$  000000005024100000000502410000000050241000000005024100000000502410000000000000000000007770000001000000000000000030000000000001507230000000000000009999123100000010000000000000BRC1TABDR001105
012021111902C1TV34      010CORTEVA INC DRN ED       R$  000000000668400000000066840000000006684000000000668400000000066840000000000000000000000000000001000000000000000100000000000000668400000000000000009999123100000010000000000000BRC1TVBDR007105
012021111902C2OI34      010COINBASEGLOBDRN          R$  000000000699100000000075730000000006991000000000749500000000074370000000006989000000000790000417000000000000035850000000000268717866000000000000009999123100000010000000000000BRC2OIBDR003100
012021111902CAMB3       010CAMBUCI     ON           R$  000000000046900000000004690000000000456000000000045900000000004580000000000458000000000046100020000000000000006500000000000002988000000000000000009999123100000010000000000000BRCAMBACNOR4119
012021111902CAML3       010CAMIL       ON      NM   R$  000000000096300000000009720000000000950000000000096000000000009570000000000955000000000095704393000000000001193100000000001145896600000000000000009999123100000010000000000000BRCAMLACNOR3116
012021111902CARD3       010CSU CARDSYSTON      NM   R$  000000000149000000000015320000000001479000000000150700000000015140000000001499000000000151401499000000000000199500000000000300666800000000000000009999123100000010000000000000BRCARDACNOR9124
012021111902CASH3       010MELIUZ      ON      NM   R$  000000000041000000000004230000000000381000000000040200000000003970000000000396000000000039728673000000000049888400000000020070434400000000000000009999123100000010000000000000BRCASHACNOR8102
012021111902CATP34      010CATERPILLAR DRN          R$  000000000691400000000070510000000006881000000000697800000000070170000000007000000000000704800035000000000000002247000000000015681173000000000000009999123100000010000000000000BRCATPBDR003142
012021111902CBAV3       010CBA         ON      NM   R$  000000000123600000000012670000000001214000000000124800000000012480000000001242000000000124807667000000000001681200000000002098570600000000000000009999123100000010000000000000BRCBAVACNOR5100
012021111902CCRO3       010CCR SA      ON      NM   R$  000000000119700000000012240000000001194000000000120700000000012030000000001203000000000120719153000000000009116600000000011008600700000000000000009999123100000010000000000000BRCCROACNOR2139
012021111902CEAB3       010CEA MODAS   ON      NM   R$  000000000072500000000007970000000000714000000000077400000000007890000000000789000000000079013371000000000004026100000000003118604100000000000000009999123100000010000000000000BRCEABACNOR1101
012021111902CEBR3       010CEB         ON           R$  000000000179000000000018000000000001746000000000178000000000018000000000001750000000000180500010000000000000001300000000000002314500000000000000009999123100000010000000000000BRCEBRACNOR5121
012021111902CEBR5       010CEB         PNA          R$  000000000179500000000017950000000001700000000000174600000000017000000000001696000000000178500007000000000000000700000000000001222300000000000000009999123100000010000000000000BRCEBRACNPA8120
012021111902CEBR6       010CEB         PNB          R$  000000000179300000000017940000000001738000000000176800000000017650000000001740000000000176000022000000000000003300000000000005836300000000000000009999123100000010000000000000BRCEBRACNPB6120
012021111902CEDO3       010CEDRO       ON      N1   R$  000000000068000000000007100000000000680000000000069000000000006820000000000682000000000072900015000000000000002000000000000001380200000000000000009999123100000010000000000000BRCEDOACNOR8096
012021111902CEDO4       010CEDRO       PN      N1   R$  000000000053300000000005410000000000530000000000053400000000005300000000000530000000000054700012000000000000002600000000000001390300000000000000009999123100000010000000000000BRCEDOACNPR5128
012021111902CEEB3       010COELBA      ON           R$  000000000348000000000034800000000003480000000000348000000000034800000000003280000000000349000001000000000000000100000000000000348000000000000000009999123100000010000000000000BRCEEBACNOR3182
012021111902CESP3       010CESP        ON      N1   R$  000000000238200000000023950000000002328000000000236400000000023540000000002346000000000237600014000000000000002000000000000004729700000000000000009999123100000010000000000000BRCESPACNOR3171
012021111902CESP6       010CESP        PNB     N1   R$  000000000248800000000025100000000002473000000000249100000000024900000000002490000000000249810312000000000003313800000000008257657200000000000000009999123100000010000000000000BRCESPACNPB4130
012021111902CGAS5       010COMGAS      PNA          R$  000000001498500000000150000000000014793000000001492900000000149990000000014733000000001499900017000000000000002500000000000037323200000000000000009999123100000010000000000000BRCGASACNPA3150
012021111902CGRA3       010GRAZZIOTIN  ON           R$  000000000430300000000044590000000004303000000000438300000000044590000000004390000000000444900012000000000000001400000000000006137300000000000000009999123100000010000000000000BRCGRAACNOR2073
012021111902CGRA4       010GRAZZIOTIN  PN           R$  000000000436500000000044860000000004300000000000437300000000044130000000004261000000000441400058000000000000012600000000000055100100000000000000009999123100000010000000000000BRCGRAACNPR9073
012021111902CHCM34      010CHARTER COMMDRN          R$  000000000630000000000063710000000006300000000000636300000000063580000000006302000000000649500021000000000000008563000000000054492797000000000000009999123100000010000000000000BRCHCMBDR001101
012021111902CHME34      010CME GROUP   DRN          R$  000000003136500000000314620000000031365000000003137700000000314620000000000000000000000000000002000000000000000008000000000000251017000000000000009999123100000010000000000000BRCHMEBDR007111
012021111902CHVX34      010CHEVRON     DRN ED       R$  000000000621400000000062820000000006179000000000622500000000062820000000006226000000000628200945000000000000033332000000000207520583000000000000009999123100000010000000000000BRCHVXBDR008144
012021111902CIEL3       010CIELO       ON  EJ  NM   R$  000000000021900000000002260000000000215000000000022100000000002200000000000220000000000022114401000000000029833500000000006594029000000000000000009999123100000010000000000000BRCIELACNOR3147
012021111902CLSA3       010CLEARSALE   ON      NM   R$  000000000169500000000017370000000001631000000000167600000000016600000000001656000000000166002070000000000000345600000000000579399900000000000000009999123100000010000000000000BRCLSAACNOR0100
012021111902CLSC3       010CELESC      ON      N2   R$  000000000648000000000064800000000006480000000000648000000000064800000000006001000000000650000001000000000000000100000000000000648000000000000000009999123100000010000000000000BRCLSCACNOR6138
012021111902CLSC4       010CELESC      PN      N2   R$  000000000700000000000070000000000007000000000000700000000000070000000000006901000000000700000004000000000000000600000000000004200000000000000000009999123100000010000000000000BRCLSCACNPR3117
012021111902CMCS34      010COMCAST     DRN          R$  000000000583500000000058710000000005762000000000582900000000058430000000005770000000000584300062000000000000043448000000000253258791000000000000009999123100000010000000000000BRCMCSBDR008141
012021111902CMIG3       010CEMIG       ON      N1   R$  000000000175000000000018010000000001750000000000177600000000017600000000001760000000000177200970000000000000189000000000000335705400000000000000009999123100000010000000000000BRCMIGACNOR6227
012021111902CMIG4       010CEMIG       PN      N1   R$  000000000135800000000013830000000001353000000000136500000000013610000000001361000000000136411292000000000006168800000000008425941100000000000000009999123100000010000000000000BRCMIGACNPR3228
012021111902CMIN3       010CSNMINERACAOON      N2   R$  000000000057300000000006040000000000573000000000059400000000005930000000000593000000000059511733000000000009259400000000005501930100000000000000009999123100000010000000000000BRCMINACNOR2102
012021111902COCA34      010COCA COLA   DRN          R$  000000000515500000000051890000000005074000000000511300000000051890000000005168000000000518901926000000000000035313000000000180578345000000000000009999123100000010000000000000BRCOCABDR002141
012021111902COCE5       010COELCE      PNA          R$  000000000485800000000049200000000004840000000000485800000000048500000000004850000000000491500041000000000000006900000000000033525800000000000000009999123100000010000000000000BRCOCEACNPA3142
012021111902COGN3       010COGNA ON    ON      NM   R$  000000000025500000000002610000000000251000000000025500000000002510000000000251000000000025213608000000000032935500000000008407885500000000000000009999123100000010000000000000BRCOGNACNOR2102
012021111902COLG34      010COLGATE     DRN          R$  000000000607800000000062110000000006078000000000617500000000062110000000006037000000000629900010000000000000000365000000000002254228000000000000009999123100000010000000000000BRCOLGBDR000143
012021111902COPH34      010COPHILLIPS  DRN          R$  000000001012000000000101200000000009611000000000980400000000096510000000009651000000001012100044000000000000003763000000000036893521000000000000009999123100000010000000000000BRCOPHBDR009140
012021111902COTY34      010COTY INC    DRN          R$  000000000296600000000029660000000002898000000000292600000000029010000000002849000000000309900111000000000000012888000000000037721292000000000000009999123100000010000000000000BRCOTYBDR006116
012021111902COWC34      010COSTCO      DRN          R$  000000000741100000000074870000000007310000000000742300000000074590000000007394000000000750000146000000000000042421000000000314910105000000000000009999123100000010000000000000BRCOWCBDR006126
012021111902CPFE3       010CPFL ENERGIAON      NM   R$  000000000252200000000025920000000002517000000000256900000000025750000000002570000000000257618571000000000004431500000000011385275900000000000000009999123100000010000000000000BRCPFEACNOR0132
012021111902CPLE3       010COPEL       ON      N1   R$  000000000055300000000005610000000000552000000000055600000000005580000000000557000000000055801701000000000000966000000000000537905200000000000000009999123100000010000000000000BRCPLEACNOR8144
012021111902CPLE6       010COPEL       PNB     N1   R$  000000000060800000000006290000000000608000000000062100000000006210000000000621000000000062226965000000000016036100000000009972770700000000000000009999123100000010000000000000BRCPLEACNPB9141
012021111902CPLE11      010COPEL       UNT     N1   R$  000000000299900000000030570000000002999000000000303300000000030490000000003034000000000304902984000000000000536200000000001626716200000000000000009999123100000010000000000000BRCPLECDAM13102
012021111902CPRL34      010CANAD PACIFIDRN          R$  000000001045000000000104500000000010450000000001045000000000104500000000010000000000000000000001000000000000000001000000000000010450000000000000009999123100000010000000000000BRCPRLBDR004109
012021111902CRDA34      010CREDIT ACCEPDRN          R$  000000003565500000000356550000000035578000000003558700000000355780000000017500000000000000000005000000000000000310000000000011032260000000000000009999123100000010000000000000BRCRDABDR003100
012021111902CRFB3       010CARREFOUR BRON  EDJ NM   R$  000000000159700000000016410000000001592000000000161800000000016150000000001614000000000161513621000000000005378600000000008703318900000000000000009999123100000010000000000000BRCRFBACNOR2110
012021111902CRIP34      010CTRIPCOM    DRN          R$  000000001632600000000163260000000016276000000001632200000000162760000000014500000000001670000003000000000000000014000000000000228514000000000000009999123100000010000000000000BRCRIPBDR000100
012021111902CRIV3       010ALFA FINANC ON           R$  000000000049000000000004900000000000490000000000049000000000004900000000000490000000000052500001000000000000000200000000000000098000000000000000009999123100000010000000000000BRCRIVACNOR4194
012021111902CRIV4       010ALFA FINANC PN           R$  000000000055500000000005550000000000555000000000055500000000005550000000000568000000000058100001000000000000000400000000000000222000000000000000009999123100000010000000000000BRCRIVACNPR1206
012021111902CRPG5       010CRISTAL     PNA          R$  000000000630600000000067000000000006200000000000650400000000064130000000006413000000000654500290000000000000049200000000000320007700000000000000009999123100000010000000000000BRCRPGACNPA3113
012021111902CRPG6       010CRISTAL     PNB          R$  000000000719400000000072500000000007000000000000718300000000072500000000006851000000000725000004000000000000000800000000000005747000000000000000009999123100000010000000000000BRCRPGACNPB1113
012021111902CSAN3       010COSAN       ON      NM   R$  000000000209500000000021530000000002088000000000211500000000021060000000002105000000000210622792000000000005092800000000010775010900000000000000009999123100000010000000000000BRCSANACNOR6121
012021111902CSCO34      010CISCO       DRN          R$  000000000596500000000059860000000005916000000000597000000000059800000000005916000000000600000021000000000000010409000000000062142327000000000000009999123100000010000000000000BRCSCOBDR004144
012021111902CSED3       010CRUZEIRO EDUON      NM   R$  000000000064700000000006710000000000628000000000065900000000006600000000000649000000000066002148000000000000328200000000000216365800000000000000009999123100000010000000000000BRCSEDACNOR9101
012021111902CSMG3       010COPASA      ON      NM   R$  000000000129000000000013230000000001284000000000130800000000013070000000001306000000000130804895000000000002005900000000002624869100000000000000009999123100000010000000000000BRCSMGACNOR5163
012021111902CSNA3       010SID NACIONALON           R$  000000000203000000000021530000000002011000000000210800000000021390000000002139000000000214030363000000000022286000000000046998775700000000000000009999123100000010000000000000BRCSNAACNOR6254
012021111902CTGP34      010CITIGROUP   DRN          R$  000000000609000000000061970000000006046000000000613100000000061970000000006020000000000619700018000000000000001940000000000011895209000000000000009999123100000010000000000000BRCTGPBDR000144
012021111902CTNM4       010COTEMINAS   PN           R$  000000000040000000000004000000000000386000000000039000000000003860000000000386000000000039400019000000000000006100000000000002380400000000000000009999123100000010000000000000BRCTNMACNPR6129
012021111902CTSA3       010SANTANENSE  ON           R$  000000000021000000000002120000000000210000000000021100000000002100000000000209000000000021000034000000000000010600000000000002237600000000000000009999123100000010000000000000BRCTSAACNOR3060
012021111902CTSA4       010SANTANENSE  PN           R$  000000000014900000000001520000000000147000000000014800000000001480000000000147000000000014800035000000000000011300000000000001678300000000000000009999123100000010000000000000BRCTSAACNPR0060
012021111902CTSH34      010COGNIZANT   DRN ED       R$  000000004620000000000462000000000045997000000004619300000000459970000000000000000000000000000002000000000000000067000000000003094994000000000000009999123100000010000000000000BRCTSHBDR002119
012021111902CURY3       010CURY S/A    ON      NM   R$  000000000068600000000007120000000000681000000000070100000000006990000000000698000000000070102850000000000000449200000000000315212000000000000000009999123100000010000000000000BRCURYACNOR3101
012021111902CVCB3       010CVC BRASIL  ON      NM   R$  000000000150500000000015810000000001490000000000154000000000015280000000001527000000000152811952000000000006607300000000010178443200000000000000009999123100000010000000000000BRCVCBACNOR1114
012021111902CVSH34      010CVS HEALTH  DRN          R$  000000002631000000000263100000000025766000000002588800000000261040000000000000000000002762500005000000000000000060000000000001553316000000000000009999123100000010000000000000BRCVSHBDR008122
012021111902CXSE3       010CAIXA SEGURION      NM   R$  000000000092900000000009470000000000920000000000093700000000009460000000000939000000000094706283000000000002500600000000002345169700000000000000009999123100000010000000000000BRCXSEACNOR7101
012021111902CYRE3       010CYRELA REALTON      NM   R$  000000000145200000000015340000000001452000000000150700000000015120000000001512000000000151317710000000000005985900000000009024755600000000000000009999123100000010000000000000BRCYREACNOR7136
012021111902D1DG34      010DATADOG INC DRN          R$  000000001092600000000110030000000010894000000001091200000000108940000000003500000000001105100008000000000000000236000000000002575405000000000000009999123100000010000000000000BRD1DGBDR001100
012021111902D1EL34      010DELL TECHNOLDRN          R$  000000003110000000000313100000000030814000000003104300000000310500000000030800000000003095900036000000000000000327000000000010151363000000000000009999123100000010000000000000BRD1ELBDR009101
012021111902D1EX34      010DEXCOM INC  DRN          R$  000000000721000000000072100000000007100000000000710500000000071540000000005663000000000790000005000000000000000456000000000003240300000000000000009999123100000010000000000000BRD1EXBDR004100
012021111902D1HI34      010DR HORTON INDRN          R$  000000005757100000000575710000000057571000000005757100000000575710000000000000000000000000000001000000000000000003000000000000172713000000000000009999123100000010000000000000BRD1HIBDR008107
012021111902D1LR34      010DIGITAL REALDRN          R$  000000002295400000000231900000000022954000000002318900000000231900000000022586000000000000000003000000000000000505000000000011710478000000000000009999123100000010000000000000BRD1LRBDR001107
012021111902D1OC34      010DOCUSIGN INCDRN          R$  000000000740500000000075960000000007371000000000742600000000073800000000007248000000000795700080000000000000001423000000000010567259000000000000009999123100000010000000000000BRD1OCBDR007100
012021111902D1OV34      010DOVER CORP  DRN          R$  000000004930000000000493000000000049196000000004928200000000491960000000000000000000000000000002000000000000000120000000000005913920000000000000009999123100000010000000000000BRD1OVBDR007107
012021111902D1OW34      010DOW INC     DRN          R$  000000000798400000000079920000000007984000000000798400000000079920000000007992000000000809500002000000000000000061000000000000487032000000000000009999123100000010000000000000BRD1OWBDR005104
012021111902D1RE34      010DUKE REALTY DRN ED       R$  000000003264700000000328970000000032640000000003279200000000328970000000000000000000004400000004000000000000000048000000000001574049000000000000009999123100000010000000000000BRD1REBDR006108
012021111902D1VN34      010DEVON ENERGYDRN          R$  000000002275800000000233000000000022700000000002278100000000233000000000017111000000002330000016000000000000000475000000000010821018000000000000009999123100000010000000000000BRD1VNBDR009108
012021111902D2AS34      010DOORDASH INCDRN          R$  000000000850600000000085060000000008221000000000822600000000082210000000006500000000000000000002000000000000000051000000000000419556000000000000009999123100000010000000000000BRD2ASBDR000100
012021111902D2PZ34      010DOMINOSPIZZADRN          R$  000000000595900000000060790000000005959000000000604700000000060790000000005959000000000610000012000000000000000734000000000004439148000000000000009999123100000010000000000000BRD2PZBDR003101
012021111902DASA3       010DASA        ON      NM   R$  000000000358700000000037500000000003586000000000368100000000037400000000003709000000000374002410000000000000388400000000001430030100000000000000009999123100000010000000000000BRDASAACNOR1120
012021111902DEAI34      010DELTA       DRN          R$  000000002192100000000219230000000021921000000002192200000000219230000000020000000000002600000002000000000000000003000000000000065767000000000000009999123100000010000000000000BRDEAIBDR008116
012021111902DEEC34      010DEERE CO    DRN          R$  000000009826200000000984060000000096000000000009745000000000971190000000000000000000010453400029000000000000000534000000000052038784000000000000009999123100000010000000000000BRDEECBDR003110
012021111902DEOP34      010DIAGEO PL   DRN          R$  000000011536200000001160000000000115362000000011589300000001160000000000000000000000014127700002000000000000000006000000000000695362000000000000009999123100000010000000000000BRDEOPBDR004104
012021111902DESK3       010DESKTOP     ON      NM   R$  000000000157100000000016980000000001533000000000163200000000016600000000001660000000000166103671000000000000797600000000001301933800000000000000009999123100000010000000000000BRDESKACNOR2100
012021111902DEXP3       010DEXXOS PAR  ON      N1   R$  000000000088700000000009250000000000879000000000090700000000008810000000000880000000000088102008000000000000410300000000000372409100000000000000009999123100000010000000000000BRDEXPACNOR1101
012021111902DEXP4       010DEXXOS PAR  PN      N1   R$  000000000079800000000008160000000000798000000000080800000000008160000000000750000000000082600010000000000000002300000000000001860500000000000000009999123100000010000000000000BRDEXPACNPR8101
012021111902DHER34      010DANAHER CORPDRN          R$  000000004344000000000442590000000043436000000004399100000000440890000000000000000000000000000010000000000000000175000000000007698516000000000000009999123100000010000000000000BRDHERBDR004126
012021111902DIRR3       010DIRECIONAL  ON      NM   R$  000000000102500000000010970000000001015000000000107700000000010800000000001079000000000108007515000000000002006000000000002161527100000000000000009999123100000010000000000000BRDIRRACNOR0114
012021111902DISB34      010WALT DISNEY DRN          R$  000000000575000000000057720000000005646000000000571000000000057350000000005735000000000576804524000000000000137156000000000783247680000000000000009999123100000010000000000000BRDISBBDR006115
012021111902DMMO3       010DOMMO       ON           R$  000000000006200000000000620000000000060000000000006000000000000600000000000060000000000006100752000000000001787400000000000108854900000000000000009999123100000010000000000000BRDMMOACNOR0104
012021111902DMVF3       010D1000VFARMA ON      NM   R$  000000000049000000000005220000000000490000000000050800000000005050000000000500000000000050500155000000000000053800000000000027356100000000000000009999123100000010000000000000BRDMVFACNOR9100
012021111902DOHL3       010DOHLER      ON           R$  000000000175100000000017510000000001751000000000175100000000017510000000001751000000000270000002000000000000000200000000000000350200000000000000009999123100000010000000000000BRDOHLACNOR2062
012021111902DOHL4       010DOHLER      PN           R$  000000000060500000000006160000000000581000000000059600000000005990000000000581000000000059900036000000000000005200000000000003100700000000000000009999123100000010000000000000BRDOHLACNPR9065
012021111902DOTZ3       010DOTZ SA     ON      NM   R$  000000000040500000000004240000000000381000000000040200000000004200000000000386000000000042000467000000000000089000000000000035852700000000000000009999123100000010000000000000BRDOTZACNOR7100
012021111902DXCO3       010DEXCO       ON      NM   R$  000000000170000000000017790000000001700000000000174900000000017180000000001718000000000172009519000000000002026100000000003545229900000000000000009999123100000010000000000000BRDXCOACNOR8100
012021111902E1CO34      010ECOPETROL SADRN          R$  000000000382000000000038200000000003820000000000382000000000038200000000000000000000000000000001000000000000000001000000000000003820000000000000009999123100000010000000000000BRE1COBDR006101
012021111902E1DU34      010NEW ORIENTALDRN          R$  000000000007700000000000820000000000077000000000008000000000000810000000000080000000000008300070000000000000150633000000000012170945000000000000009999123100000010000000000000BRE1DUBDR001101
012021111902E1MR34      010EMERSON ELECDRN ED       R$  000000005268200000000526820000000052682000000005268200000000526820000000000000000000000000000001000000000000000010000000000000526820000000000000009999123100000010000000000000BRE1MRBDR008108
012021111902E1NI34      010ENEL AMERICADRN          R$  000000000311800000000031770000000003118000000000314000000000031770000000003000000000000320500002000000000000000026000000000000081658000000000000009999123100000010000000000000BRE1NIBDR005102
012021111902E1OG34      010EOG RESOURCEDRN          R$  000000002618000000000261800000000026180000000002618000000000261800000000000000000000000000000001000000000000000030000000000000785400000000000000009999123100000010000000000000BRE1OGBDR007108
012021111902E1QN34      010EQUINOR ASA DRN ED       R$  000000000693200000000069320000000006931000000000693100000000069310000000000000000000000784700003000000000000000040000000000000277265000000000000009999123100000010000000000000BRE1QNBDR008105
012021111902E1RI34      010ERICSSON LM DRN          R$  000000000307500000000030750000000003039000000000305400000000030390000000002910000000000350000003000000000000000012000000000000036648000000000000009999123100000010000000000000BRE1RIBDR006102
012021111902E1SS34      010ESSEX PROPERDRN          R$  000000001948200000000195700000000019482000000001948200000000195700000000000000000000002000000002000000000000002030000000000039548548000000000000009999123100000010000000000000BRE1SSBDR003107
012021111902E1TN34      010EATON CORP PDRN ED       R$  000000004800000000000486720000000048000000000004806100000000486720000000000000000000005520000008000000000000000051000000000002451120000000000000009999123100000010000000000000BRE1TNBDR002108
012021111902E1XR34      010EXTRA SPACE DRN          R$  000000002965200000000296520000000028448000000002905000000000284480000000017777000000003493000002000000000000000004000000000000116200000000000000009999123100000010000000000000BRE1XRBDR005107
012021111902E2EF34      010EURONETWORLDDRN          R$  000000000400000000000040000000000004000000000000400000000000040000000000003500000000000000000001000000000000000001000000000000004000000000000000009999123100000010000000000000BRE2EFBDR008100
012021111902E2TS34      010ETSY INC    DRN          R$  000000001106000000000110600000000011036000000001103900000000110360000000007000000000000000000002000000000000000008000000000000088312000000000000009999123100000010000000000000BRE2TSBDR009100
012021111902EALT4       010ACO ALTONA  PN           R$  000000000061300000000006180000000000603000000000061000000000006100000000000607000000000061000033000000000000011600000000000007084300000000000000009999123100000010000000000000BREALTACNPR1134
012021111902EBAY34      010EBAY        DRN          R$  000000002087400000000212290000000020713000000002098500000000209160000000020742000000002126700035000000000000000698000000000014647939000000000000009999123100000010000000000000BREBAYBDR009112
012021111902ECOR3       010ECORODOVIAS ON      NM   R$  000000000086100000000009000000000000858000000000088600000000008910000000000891000000000089215394000000000006403700000000005679216600000000000000009999123100000010000000000000BRECORACNOR8117
012021111902EEEL3       010CEEE-T      ON      N1   R$  000000003550000000000355000000000035500000000003550000000000355000000000000000000000004000000001000000000000000100000000000003550000000000000000009999123100000010000000000000BREEELACNOR8111
012021111902EGIE3       010ENGIE BRASILON      NM   R$  000000000393500000000040250000000003927000000000399200000000039750000000003975000000000397608295000000000001336000000000005334016200000000000000009999123100000010000000000000BREGIEACNOR9116
012021111902EKTR4       010ELEKTRO     PN           R$  000000000260000000000026000000000002600000000000260000000000026000000000002600000000000268000001000000000000000200000000000000520000000000000000009999123100000010000000000000BREKTRACNPR7147
012021111902ELCI34      010ESTEE LAUDERDRN          R$  000000009679100000000993280000000096528000000009891700000000991180000000096791000000011000000020000000000000001352000000000133736574000000000000009999123100000010000000000000BRELCIBDR007108
012021111902ELET3       010ELETROBRAS  ON      N1   R$  000000000328000000000033370000000003268000000000330700000000033040000000003304000000000330512603000000000002925700000000009676366400000000000000009999123100000010000000000000BRELETACNOR6157
012021111902ELET6       010ELETROBRAS  PNB     N1   R$  000000000319400000000032910000000003194000000000326300000000032530000000003253000000000325908496000000000001802300000000005881793800000000000000009999123100000010000000000000BRELETACNPB7074
012021111902ELMD3       010ELETROMIDIA ON      NM   R$  000000000121000000000013020000000001184000000000123900000000012330000000001190000000000123301809000000000000385500000000000477850600000000000000009999123100000010000000000000BRELMDACNOR3100
012021111902EMAE4       010EMAE        PN  EJ       R$  000000000671400000000069450000000006402000000000677900000000067990000000006434000000000680000026000000000000002900000000000019661700000000000000009999123100000010000000000000BREMAEACNPR1119
012021111902EMBR3       010EMBRAER     ON      NM   R$  000000000209700000000021250000000002053000000000207900000000020720000000002070000000000207214228000000000007989900000000016614781700000000000000009999123100000010000000000000BREMBRACNOR4190
012021111902ENAT3       010ENAUTA PART ON      NM   R$  000000000127000000000012870000000001249000000000126400000000012650000000001265000000000126607916000000000001648500000000002085021600000000000000009999123100000010000000000000BRENATACNOR0102
012021111902ENBR3       010ENERGIAS BR ON      NM   R$  000000000206000000000021130000000002060000000000209800000000020920000000002092000000000209609965000000000002317300000000004863047000000000000000009999123100000010000000000000BRENBRACNOR2131
012021111902ENEV3       010ENEVA       ON      NM   R$  000000000153100000000016050000000001527000000000156600000000015500000000001549000000000155021246000000000005799500000000009085974900000000000000009999123100000010000000000000BRENEVACNOR8105
012021111902ENGI3       010ENERGISA    ON      N2   R$  000000000152800000000015500000000001499000000000152400000000014990000000001499000000000152300024000000000000002400000000000003657800000000000000009999123100000010000000000000BRENGIACNOR0140
012021111902ENGI4       010ENERGISA    PN      N2   R$  000000000068800000000007030000000000685000000000069800000000006850000000000681000000000069800052000000000000009200000000000006428000000000000000009999123100000010000000000000BRENGIACNPR7136
012021111902ENGI11      010ENERGISA    UNT     N2   R$  000000000424000000000043430000000004229000000000430400000000042910000000004289000000000429106368000000000001063000000000004575309300000000000000009999123100000010000000000000BRENGICDAM16130
012021111902ENJU3       010ENJOEI      ON      NM   R$  000000000035200000000003730000000000346000000000035700000000003460000000000346000000000035004900000000000002262000000000000808699400000000000000009999123100000010000000000000BRENJUACNOR9100
012021111902ENMT3       010ENERGISA MT ON  ED       R$  000000000790100000000079990000000007900000000000794700000000079900000000000000000000000800000004000000000000000400000000000003179000000000000000009999123100000010000000000000BRENMTACNOR5114
012021111902EPAR3       010EMBPAR S/A  ON           R$  000000000160300000000016500000000001570000000000160000000000016100000000001570000000000164000039000000000000007700000000000012321900000000000000009999123100000010000000000000BREPARACNOR9100
012021111902EQIX34      010EQUINIX INC DRN ED       R$  000000000548000000000055560000000005480000000000552000000000055380000000005455000000000600000021000000000000004852000000000026784637000000000000009999123100000010000000000000BREQIXBDR002112
012021111902EQMA3B      010EQTLMARANHAOON      MB   R$  000000000429200000000042920000000004292000000000429200000000042920000000004280000000000455000001000000000000002300000000000009871600000000000000009999123100000010000000000000BREQMAACNOR8104
012021111902EQPA3       010EQTL PARA   ON           R$  000000000051400000000005220000000000503000000000051900000000005220000000000510000000000052500020000000000000013200000000000006851900000000000000009999123100000010000000000000BREQPAACNOR1104
012021111902EQTL3       010EQUATORIAL  ON      NM   R$  000000000236000000000024010000000002339000000000235800000000023460000000002346000000000234718408000000000004921900000000011606546200000000000000009999123100000010000000000000BREQTLACNOR0127
012021111902ESPA3       010ESPACOLASER ON      NM   R$  000000000093500000000010030000000000934000000000096700000000009560000000000956000000000095808801000000000002504700000000002422346600000000000000009999123100000010000000000000BRESPAACNOR7102
012021111902EUCA3       010EUCATEX     ON      N1   R$  000000000154000000000015400000000001455000000000147600000000014610000000001461000000000150700021000000000000004200000000000006201800000000000000009999123100000010000000000000BREUCAACNOR1153
012021111902EUCA4       010EUCATEX     PN      N1   R$  000000000087000000000008700000000000821000000000083300000000008210000000000821000000000084400345000000000000075500000000000062956500000000000000009999123100000010000000000000BREUCAACNPR8040
012021111902EVEN3       010EVEN        ON      NM   R$  000000000060600000000006380000000000600000000000062500000000006240000000000623000000000062404299000000000001524500000000000953951000000000000000009999123100000010000000000000BREVENACNOR8114
012021111902EXXO34      010EXXON MOBIL DRN ED       R$  000000000884600000000088460000000008361000000000854400000000085330000000008480000000000853300165000000000000013724000000000117271147000000000000009999123100000010000000000000BREXXOBDR006145
012021111902EZTC3       010EZTEC       ON      NM   R$  000000000189800000000020230000000001898000000000198100000000019630000000001963000000000196409788000000000002105300000000004172566900000000000000009999123100000010000000000000BREZTCACNOR0115
012021111902F1FI34      010F5 NETWORKS DRN          R$  000000003252900000000325290000000032529000000003252900000000325290000000000000000000000000000001000000000000000004000000000000130116000000000000009999123100000010000000000000BRF1FIBDR000100
012021111902F1MC34      010FMC CORP    DRN          R$  000000002929400000000292940000000029233000000002924500000000292330000000025000000000000000000002000000000000000005000000000000146226000000000000009999123100000010000000000000BRF1MCBDR009107
012021111902F1RA34      010FRANKLIN RESDRN          R$  000000001928600000000192860000000019286000000001928600000000192860000000000000000000000000000002000000000000000988000000000019054568000000000000009999123100000010000000000000BRF1RABDR002107
012021111902F1RI34      010FEDERAL REALDRN          R$  000000001798200000000181080000000017940000000001802000000000181080000000000000000000000000000014000000000000000119000000000002144485000000000000009999123100000010000000000000BRF1RIBDR005107
012021111902F1TN34      010FORTINET INCDRN          R$  000000009538000000000958550000000095380000000009544100000000958550000000090400000000011000000002000000000000000023000000000002195165000000000000009999123100000010000000000000BRF1TNBDR001100
012021111902F1TV34      010FORTIVE CORPDRN          R$  000000002224200000000222470000000022212000000002222100000000222120000000000000000000000000000003000000000000000007000000000000155549000000000000009999123100000010000000000000BRF1TVBDR004108
012021111902F2VR34      010FIVERR INTL DRN          R$  000000000453200000000045320000000004532000000000453200000000045320000000004532000000000000000001000000000000000876000000000003970032000000000000009999123100000010000000000000BRF2VRBDR006100
012021111902FBOK34      010FACEBOOK    DRN          R$  000000000677100000000070120000000006702000000000690900000000069160000000006909000000000691604179000000000000395107000000002730109195000000000000009999123100000010000000000000BRFBOKBDR006101
012021111902FCXO34      010FREEPORT    DRN          R$  000000002147100000000217840000000021200000000002154600000000215000000000020619000000002178400024000000000000000260000000000005602166000000000000009999123100000010000000000000BRFCXOBDR007135
012021111902FDMO34      010FORD MOTORS DRN ED       R$  000000001087100000000109110000000010695000000001080500000000108240000000010600000000001086300279000000000000020936000000000226227162000000000000009999123100000010000000000000BRFDMOBDR008134
012021111902FDXB34      010FEDEX CORP  DRN          R$  000000013545000000001374960000000135250000000013583000000001365440000000134500000000013700000021000000000000001004000000000136373879000000000000009999123100000010000000000000BRFDXBBDR002132
012021111902FESA4       010FERBASA     PN      N1   R$  000000000469800000000048660000000004639000000000473200000000046710000000004671000000000468401933000000000000360400000000001705447700000000000000009999123100000010000000000000BRFESAACNPR5071
012021111902FIQE3       010UNIFIQUE    ON      NM   R$  000000000062500000000006700000000000620000000000065000000000006600000000000657000000000066003756000000000000979300000000000637382600000000000000009999123100000010000000000000BRFIQEACNOR5100
012021111902FLRY3       010FLEURY      ON      NM   R$  000000000192600000000019800000000001916000000000194800000000019290000000001929000000000193006991000000000001327300000000002586152100000000000000009999123100000010000000000000BRFLRYACNOR5130
012021111902FLTC34      010FLEETCOR TECDRN          R$  000000003170100000000317010000000031701000000003170100000000317010000000000000000000000000000001000000000000000003000000000000095103000000000000009999123100000010000000000000BRFLTCBDR001100
012021111902FRAS3       010FRAS-LE     ON      N1   R$  000000000134100000000013500000000001304000000000131800000000013100000000001307000000000132300823000000000000164100000000000216310000000000000000009999123100000010000000000000BRFRASACNOR0152
012021111902FSLR34      010FIRST SOLAR DRN          R$  000000002875000000000304200000000028750000000003035900000000304200000000028750000000003200000004000000000000000215000000000006527354000000000000009999123100000010000000000000BRFSLRBDR001100
012021111902G1AR34      010GARTNER INC DRN          R$  000000004654100000000473290000000046541000000004659500000000473290000000019900000000000000000002000000000000000043000000000002003627000000000000009999123100000010000000000000BRG1ARBDR001100
012021111902G1DS34      010GDS HOLDINGSDRN          R$  000000000318900000000031890000000003186000000000318700000000031860000000002500000000000580000003000000000000000042000000000000133872000000000000009999123100000010000000000000BRG1DSBDR003100
012021111902G1FI34      010GOLD FIELDS DRN          R$  000000000302400000000030450000000003024000000000304300000000030330000000002750000000000310000003000000000000000043000000000000130860000000000000009999123100000010000000000000BRG1FIBDR009102
012021111902G1LP34      010GALAPAGOS NVDRN          R$  000000000140300000000014390000000001403000000000143300000000014390000000001310000000000164000002000000000000000120000000000000171960000000000000009999123100000010000000000000BRG1LPBDR002100
012021111902G1PC34      010GENUINE PARTDRN          R$  000000003777200000000377720000000037772000000003777200000000377720000000000000000000004400000001000000000000000001000000000000037772000000000000009999123100000010000000000000BRG1PCBDR001107
012021111902G1PI34      010GLOBAL PAYMEDRN          R$  000000001767600000000177980000000017676000000001775700000000177750000000015000000000002150000004000000000000000007000000000000124305000000000000009999123100000010000000000000BRG1PIBDR008107
012021111902G1RM34      010GARMIN LTD  DRN          R$  000000003996100000000401760000000039961000000003997900000000401160000000000000000000000000000019000000000000000126000000000005037464000000000000009999123100000010000000000000BRG1RMBDR006107
012021111902G1SK34      010GLAXOSMITHKLDRN ED       R$  000000000461500000000046260000000004615000000000461500000000046170000000004620000000000495000004000000000000000054000000000000249234000000000000009999123100000010000000000000BRG1SKBDR008105
012021111902G2DI33      010G2D INVEST  DR3          R$  000000000062000000000006300000000000608000000000061500000000006180000000000618000000000062004075000000000000110866000000000068196301000000000000009999123100000010000000000000BRG2DIBDR002100
012021111902GEOO34      010GE          DRN          R$  000000005532600000000560150000000054993000000005572700000000559050000000052500000000005862300026000000000000000437000000000024352830000000000000009999123100000010000000000000BRGEOOBDR000146
012021111902GEPA4       010GER PARANAP PN           R$  000000000320000000000032380000000003199000000000320500000000032300000000003230000000000348000007000000000000001100000000000003526400000000000000009999123100000010000000000000BRGEPAACNPR9155
012021111902GETT3       010GETNET BR   ON           R$  000000000019900000000002150000000000193000000000019900000000001980000000000198000000000019900705000000000000548200000000000109548600000000000000009999123100000010000000000000BRGETTACNOR4100
012021111902GETT4       010GETNET BR   PN           R$  000000000018000000000001890000000000173000000000018000000000001800000000000180000000000018200856000000000000467300000000000084236800000000000000009999123100000010000000000000BRGETTACNPR1100
012021111902GETT11      010GETNET BR   UNT          R$  000000000038000000000004000000000000369000000000038500000000003770000000000376000000000037704234000000000001544500000000000595753400000000000000009999123100000010000000000000BRGETTCDAM17100
012021111902GFSA3       010GAFISA      ON      NM   R$  000000000020900000000002180000000000208000000000021300000000002110000000000211000000000021202348000000000004654900000000000991548900000000000000009999123100000010000000000000BRGFSAACNOR3120
012021111902GGBR3       010GERDAU      ON      N1   R$  000000000201600000000020300000000001982000000000200500000000020010000000002001000000000201000300000000000000045600000000000091454200000000000000009999123100000010000000000000BRGGBRACNOR1180
012021111902GGBR4       010GERDAU      PN      N1   R$  000000000246400000000025000000000002435000000000247400000000024790000000002478000000000247924304000000000012825700000000031732646100000000000000009999123100000010000000000000BRGGBRACNPR8180
012021111902GGPS3       010GPS         ON  ED  NM   R$  000000000156000000000016070000000001538000000000157200000000015650000000001563000000000156604847000000000001179200000000001854618800000000000000009999123100000010000000000000BRGGPSACNOR9101
012021111902GILD34      010GILEAD      DRN          R$  000000001876700000000191900000000018767000000001897100000000191500000000019100000000002301700006000000000000000140000000000002655944000000000000009999123100000010000000000000BRGILDBDR000122
012021111902GMAT3       010GRUPO MATEUSON      NM   R$  000000000067100000000006810000000000659000000000066700000000006600000000000659000000000066008928000000000004149600000000002769717700000000000000009999123100000010000000000000BRGMATACNOR7100
012021111902GMCO34      010GENERAL MOT DRN          R$  000000000862900000000087700000000008542000000000866800000000086490000000008600000000000874700488000000000000023538000000000204034936000000000000009999123100000010000000000000BRGMCOBDR008116
012021111902GNDI3       010INTERMEDICA ON      NM   R$  000000000719100000000075120000000007191000000000732200000000072650000000007260000000000726516020000000000003378900000000024742252400000000000000009999123100000010000000000000BRGNDIACNOR2103
012021111902GOAU3       010GERDAU MET  ON      N1   R$  000000000093200000000009360000000000920000000000092700000000009240000000000922000000000092800356000000000000106800000000000099005600000000000000009999123100000010000000000000BRGOAUACNOR1257
012021111902GOAU4       010GERDAU MET  PN      N1   R$  000000000103000000000010460000000001025000000000103500000000010340000000001033000000000103515802000000000014362400000000014866130000000000000000009999123100000010000000000000BRGOAUACNPR8258
012021111902GOGL34      010ALPHABET    DRN A        R$  000000001115000000000112120000000011032000000001113300000000111670000000011130000000001116702191000000000000194318000000002163343588000000000000009999123100000010000000000000BRGOGLBDR001101
012021111902GOGL35      010ALPHABET    DRN C        R$  000000001121700000000112840000000011129000000001122000000000112580000000011169000000001125800101000000000000003177000000000035646648000000000000009999123100000010000000000000BRGOGLBDR019101
012021111902GOLL4       010GOL         PN      N2   R$  000000000165600000000016960000000001625000000000166400000000016710000000001671000000000167508543000000000003992700000000006647153400000000000000009999123100000010000000000000BRGOLLACNPR4126
012021111902GPIV33      010GP INVEST   DR3          R$  000000000062500000000006350000000000606000000000061400000000006080000000000608000000000061700148000000000000025812000000000015870225000000000000009999123100000010000000000000BRGPIVBDR003104
012021111902GPRO34      010GOPRO       DRN          R$  000000000627000000000064160000000006270000000000639500000000062870000000004100000000000638400007000000000000000793000000000005071489000000000000009999123100000010000000000000BRGPROBDR009100
012021111902GRND3       010GRENDENE    ON      NM   R$  000000000088400000000009180000000000882000000000090000000000008930000000000893000000000089402990000000000001025700000000000923852400000000000000009999123100000010000000000000BRGRNDACNOR3163
012021111902GSGI34      010GOLDMANSACHSDRN          R$  000000002152000000000218370000000021155000000002156200000000216520000000021618000000002209400060000000000000002242000000000048343015000000000000009999123100000010000000000000BRGSGIBDR008144
012021111902GSHP3       010GENERALSHOPPON           R$  000000000357600000000035760000000003540000000000354900000000035740000000003540000000000407700006000000000000001500000000000005324000000000000000009999123100000010000000000000BRGSHPACNOR7102
012021111902GUAR3       010GUARARAPES  ON           R$  000000000116600000000012100000000001139000000000118600000000011830000000001175000000000118303082000000000000760000000000000901643600000000000000009999123100000010000000000000BRGUARACNOR4168
012021111902H1CA34      010HCA HEALTHCADRN          R$  000000006687700000000673880000000066877000000006695800000000673880000000065500000000000000000005000000000000000119000000000007968031000000000000009999123100000010000000000000BRH1CABDR002104
